:100000000C9434000C9451000C9451000C94510049
:100010000C9451000C9451000C9451000C9451001C
:100020000C9451000C9451000C9451000C9451000C
:100030000C9451000C9451000C9451000C945100FC
:100040000C9451000C9451000C9451000C945100EC
:100050000C9451000C9451000C9451000C945100DC
:100060000C9451000C94510011241FBECFEFD8E026
:10007000DEBFCDBF11E0A0E0B1E0E2EAF2E002C0F5
:1000800005900D92A831B107D9F721E0A8E1B1E0C0
:1000900001C01D92AE31B207E1F70E94C1000C947D
:1000A0004F010C9400001092C50083E38093C400BC
:1000B000E2ECF0E0808186608083E1ECF0E080811A
:1000C000886180830895CF93C82F8A3019F48DE01A
:1000D0000E9463008091C00085FFFCCFC093C600E2
:1000E00090E080E0CF9108958091C000807890E00A
:1000F0000895CF938091C00087FFFCCFC091C600C8
:1001000070E060E08C2F0E946300CD3031F470E02D
:1001100060E08AE00E946300CAE08C2F90E0CF91FB
:100120000895EF92FF920F931F93CF93DF937C017B
:10013000EC0190E080E00E947900182F60911A0194
:1001400070911B0190E00E94F4001A3041F4188273
:10015000DF91CF911F910F91FF90EF90089518308C
:1001600069F4EC16FD0650F460911A0170911B01C0
:1001700088E090E00E94F4002197DBCF188321965D
:10018000D8CF84B1806C84B9429A8BB18C608BB922
:100190000E94530080E091E090931B0180931A012C
:1001A00090931901809318018EE091E00E94240140
:1001B0000E947400892BE1F390E080E00E947900B6
:1001C00070E060E08F5F0E9463002E9A87EA91E6FC
:1001D0000197F1F700C000002E9887EA91E6019799
:1001E000F1F700C00000E4CF0F931F93CF93DF938C
:1001F000182F092FEB018B8181FD09C01FEF0FEF35
:10020000812F902FDF91CF911F910F91089582FF41
:1002100014C02E813F818C819D81281739073CF4C1
:10022000E881F981CF0101969983888310838E81BB
:100230009F8101969F838E83E3CFE885F985812F87
:100240000995892BA1F3DACF0F931F93CF93DF93F7
:10025000E0911A01F0911B012381EC0110E000E014
:1002600021FD08C00FEF1FEF14C00995892B11F075
:100270000FEF1FEF899160911A0170911B01DB0153
:100280001896ED91FC918111F0CF8AE00995892BA8
:1002900049F7C801DF91CF911F910F910895F8940C
:0202A000FFCF8E
:1002A20000000003000000006300790000005541D7
:0802B2005254205465737400DE
:00000001FF
